:1009C900021004000234000020201200C000F900C7
:1009D900A400B000990092008200F8008000900005
:1009E90088008300C600A10086008E080800010067
:0509F9000200040008EB
:100ADF00438E80758901758ACD758CD4D2AFD2A91A
:030AEF00D28C2284
:100A7A00D3EF9400EE6480948040147D787C00ED7E
:0F0A8A001D70011CED4C70F7EF1F70E41E80E132
:010A9900223A
:060A2C00F8E6FE08E6FFFB
:100A3200C282E4FDFCEF30E704D2808002C280D2A1
:100A420082C282EF25E0FFEE33FE0DBD00010CED08
:050A520064084C70E097
:010A5700227C
:100A5800AB05AA04C281EF25E02412120A2CEB256B
:100A6800E02408120A2CD2817F057E00120A7AC27D
:020A78008122D9
:100ACB00C2817FFF7E00120A32E4FFFE120A32D28D
:040ADB0081C2812231
:10091700AE10AF117C037DE812088C7D037C0012BA
:100927000A58AE10AF117C007D6412088C7C007DE4
:100937000A12088CAE04AF057D027C00120A58AE7D
:1009470010AF117C007D0A12088C7C007D0A12080A
:100957008CAE04AF057D017C00120A58AE10AF11B2
:100967007C007D0A12088CAE04AF05E4FDFC120A78
:0409770058020ACB4D
:03000B0002097B6C
:10097B00C0E0C0F0C0D075D000C000C002C003C042
:10098B0004C005C006C007758ACD758CD40535E546
:10099B003570020534C39404E534648094804009B7
:1009AB00753400753500120917D007D006D005D065
:0E09BB0004D003D002D000D0D0D0F0D0E03273
:100AB400753600753780E4F538F539E5374539443E
:060AC40008F5BCE4F5A2F8
:010ACA002209
:100A9A00AFBD7E00EF7802C333CE33CED8F9FFADB7
:090AAA00BEED4207E4F5BDF5BE06
:010AB3002220
:1009FF00E4FBFAF582F583120AB4E5BC30E4FB128E
:100A0F000A9AEF2BFBEE3AFAA3E582641E45837038
:0C0A1F00E67C007D1EAF03AE021208E171
:010A2B0022A8
:0F0AF200120ADF759D011209FF8E108F1180F718
:03000000020800F3
:0C080000787FE4F6D8FD758139020847C6
:10088C00BC000BBE0029EF8DF084FFADF022E4CC50
:10089C00F875F008EF2FFFEE33FEEC33FCEE9DEC19
:1008AC00984005FCEE9DFE0FD5F0E9E4CEFD22ED5F
:1008BC00F8F5F0EE8420D21CFEADF075F008EF2FA9
:1008CC00FFED33FD4007985006D5F0F222C398FD9A
:0508DC000FD5F0EA2237
:1008E100C2D5EC30E709B2D5E4C39DFDE49CFCEE32
:1008F10030E715B2D5E4C39FFFE49EFE12088CC316
:10090100E49DFDE49CFC800312088C30D507C3E410
:060911009FFFE49EFE22A0
:10080C00020AF2E493A3F8E493A34003F68001F206
:10081C0008DFF48029E493A3F85407240CC8C333ED
:10082C00C4540F4420C8834004F456800146F6DFBC
:10083C00E4800B01020408102040809009C9E47E7A
:10084C00019360BCA3FF543F30E509541FFEE493B1
:10085C00A360010ECF54C025E060A840B8E493A378
:10086C00FAE493A3F8E493A3C8C582C8CAC583CAA3
:10087C00F0A3C8C582C8CAC583CADFE9DEE780BE5B
:0109FE0000F8
:00000001FF
