:1001EF00022F000002090000012E3C010805020B3E
:1001FF000400010D0120200E00C000F900A400B082
:10020F0000990092008200F800800090008800831F
:08021F0000C600A10086008E5C
:1002F600758E80758902758C85758A85D2AFD2A96F
:03030600D28C2274
:03000B0002016E81
:10016E00C0E0C0D075D000C006C0070530E53070C5
:10017E0002052FE50A242EFFE43509FEC3E5309F64
:10018E00E52F9E5004D2918002C291D3E53094099E
:10019E00E52F94074006752F00753000D007D00666
:0501AE00D0D0D0E032CA
:0D02280025E0240EF808E6F5807F0A7E0030
:10023500E4FDFCC3ED9FEC9E5015E4FBFA0BBB00FF
:0F024500010AEB64784A70F50DBD00010C80E4EE
:010254002287
:100125002093163092137F147E0012023520930916
:10013500309206750900750A282092163093137FB0
:10014500147E001202352092093093067509007558
:100155000A5A20920A2093077F147E001202353036
:090165009206309303120282227B
:1002DF00753100753280E4F533F534E53245344439
:0602EF0008F5BCE4F5A2D5
:0102F50022E6
:1002C500AFBD7E00EF7802C333CE33CED8F9FFAD94
:0902D500BEED4207E4F5BDF5BEE3
:0102DE0022FD
:10025500E4FBFAF582F5831202DFE5BC30E4FB121C
:1002650002C5EF2BFBEE3AFAA3E582641E458370C7
:0C027500E67C007D32AF03AE0212009A5E
:01028100225A
:1001B3008E318F32C2A3D2A27C007D6412009AEFEB
:1001C300120228C2A3C2A27580FFD2A3C2A2AE317B
:1001D300AF327C007D0A12009A7C007D0A12009ADD
:0C01E300ED120228C2A3C2A27580FF2208
:10028200120255C3EF9469EE940040067509007599
:100292000A23120255C3EF9469EE940050067509C1
:0502A20000750A3F2277
:1002A700759D01750900852E0A1202F67F887E1357
:0E02B7001202351201251202551201B380F514
:0300000002000EED
:0C000E00787FE4F6D8FD758134020055BF
:10009A00C2D5EC30E709B2D5E4C39DFDE49CFCEE81
:1000AA0030E715B2D5E4C39FFFE49EFE1200D0C329
:1000BA00E49DFDE49CFC80031200D030D507C3E424
:0600CA009FFFE49EFE22F0
:10001A000202A7E493A3F8E493A34003F68001F253
:10002A0008DFF48029E493A3F85407240CC8C333E7
:10003A00C4540F4420C8834004F456800146F6DFB6
:10004A00E4800B01020408102040809001EFE47E56
:10005A00019360BCA3FF543F30E509541FFEE493AB
:10006A00A360010ECF54C025E060A840B8E493A372
:10007A00FAE493A3F8E493A3C8C582C8CAC583CA9D
:10008A00F0A3C8C582C8CAC583CADFE9DEE780BE55
:0102270000D6
:1000D000BC000BBE0029EF8DF084FFADF022E4CC14
:1000E000F875F008EF2FFFEE33FEEC33FCEE9DECDD
:1000F000984005FCEE9DFE0FD5F0E9E4CEFD22ED23
:10010000F8F5F0EE8420D21CFEADF075F008EF2F6C
:10011000FFED33FD4007985006D5F0F222C398FD5D
:050120000FD5F0EA22FA
:00000001FF
