:100A9F0020200A00C000F900A400B00099009200C5
:100AAF008200F8008000900088008300C600A1003B
:030ABF0086008E20
:100ADD00E4F52AF52B758E80758902758C85758ADE
:080AED0085D2AFD2A9D28C2200
:03000B00020917D0
:10091700C0E0C0D075D000C000C006C007052BE5F9
:100927002B7002052AE509242EFFE43508FEC3E5EE
:100937002B9FEE6480F8E52A6480985004D2978054
:1009470002C297D3E52B9409E52A64809487400671
:10095700752A00752B00D007D006D000D0D0D0E084
:01096700325D
:100B0D00752C00752D80E4F52EF52FE52D452F4420
:060B1D0008F5BCE4F5A29E
:010B230022AF
:100AC300AFBD7E00EF7802C333CE33CED8F9FFAD8E
:090AD300BEED4207E4F5BDF5BEDD
:010ADC0022F7
:1009F700E4FBFAF582F583120B0DE5BC30E4FB123C
:100A07000AC3EF2BFBEE3AFAA3E582641445837021
:0C0A1700E67C007D1EAF03AE0212088CCE
:010A230022B0
:100A24001209F7D3EF94A8EE9400400775080075F7
:100A3400094B221209F7C3EF9476EE940050077520
:0D0A440008007509692275080075095A221D
:100A51008E308F31C2A3D2A27D641209B7C2A3C264
:100A6100A27580FFD2A3C2A2AE30AF317D0A1209B6
:090A7100B7C2A3C2A27580FF22E6
:100A7A0020920A20930775080075095A22209207C6
:100A8A0075080075096E22209307750800750946D6
:050A9A0022120A2422D3
:100968007532007533148532088533097F0A7E0095
:100978001209D10533E53370020532C394A0E5327C
:100988006480948040E07532007533A08532088514
:1009980033097F0A7E001209D1E533153370021539
:0E09A80032D3E5339414E5326480948050DE3F
:0109B600221E
:1009B7007C0012088C7C007D0A12088CED25E0244F
:0A09C7000AF808E6F5807F057E00BF
:1009D100E4FDFCC3ED9FEE6480F8EC648098501553
:1009E100E4FBFA0BBB00010AEB64784A70F50DBD1C
:0509F10000010C80DE96
:0109F60022DE
:100AF500D2B2D2B375080075095AD2A3D2A2D29246
:080B0500D293759D01020ADD87
:080B2400120AF5120A7A80FBA7
:03000000020800F3
:0C080000787FE4F6D8FD758133020847CC
:10088C00C2D5EC30E709B2D5E4C39DFDE49CFCEE87
:10089C0030E715B2D5E4C39FFFE49EFE1208C2C335
:1008AC00E49DFDE49CFC80031208C230D507C3E430
:0608BC009FFFE49EFE22F6
:10080C00020B24E493A3F8E493A34003F68001F2D3
:10081C0008DFF48029E493A3F85407240CC8C333ED
:10082C00C4540F4420C8834004F456800146F6DFBC
:10083C00E4800B0102040810204080900A9FE47EA3
:10084C00019360BCA3FF543F30E509541FFEE493B1
:10085C00A360010ECF54C025E060A840B8E493A378
:10086C00FAE493A3F8E493A3C8C582C8CAC583CAA3
:10087C00F0A3C8C582C8CAC583CADFE9DEE780BE5B
:010AC2000033
:1008C200BC000BBE0029EF8DF084FFADF022E4CC1A
:1008D200F875F008EF2FFFEE33FEEC33FCEE9DECE3
:1008E200984005FCEE9DFE0FD5F0E9E4CEFD22ED29
:1008F200F8F5F0EE8420D21CFEADF075F008EF2F73
:10090200FFED33FD4007985006D5F0F222C398FD63
:050912000FD5F0EA2200
:00000001FF
