:10044A0002120400021004000236000020201400E8
:10045A00C000F900A400B000990092008200F800E0
:10046A008000900088008300C600A10086008E08E4
:09047A0008000100020004000862
:1005BF00438E80758901758ACD758CD4D2AFD2A93F
:0305CF00D28C22A9
:10055A00D3EF9400EE6480948040147D3C7C00EDDF
:0F056A001D70011CED4C70F7EF1F70E41E80E157
:01057900225F
:06050C00F8E6FE08E6FF20
:10051200C2A2E4FDFCEF30E704D2A08002C2A0D266
:10052200A2C2A2EF25E0FFEE33FE0DBD00010CEDED
:0505320064084C70E0BC
:0105370022A1
:10053800AB05AA04C2A1EF25E0241412050CEB2593
:10054800E0240812050CD2A17F057E0012055AC2CC
:02055800A122DE
:1005AB00C2A17FFF7E00120512E4FFFE120512D2DC
:0405BB00A1C2A12216
:10039800AE10AF117C037DE81202737D037C00125E
:1003A8000538AE10AF117C007D641202737C007DAD
:1003B8000A120273AE04AF057D027C00120538AE46
:1003C80010AF117C007D0A1202737C007D0A1202B4
:1003D80073AE04AF057D017C00120538AE10AF1175
:1003E8007C007D0A120273AE04AF05E4FDFC120521
:0403F800380205AB17
:03000B000203FCF1
:1003FC00C0E0C0F0C0D075D000C000C002C003C0C7
:10040C0004C005C006C007758ACD758CD40537E5C8
:10041C003770020536C39409E53664809480400930
:10042C00753600753700120398D007D006D005D06A
:0E043C0004D003D002D000D0D0D0F0D0E032F7
:10059400753800753980E4F53AF53BE539453B4457
:0605A40008F5BCE4F5A21D
:0105AA00222E
:10057A00AFBD7E00EF7802C333CE33CED8F9FFADDC
:09058A00BEED4207E4F5BDF5BE2B
:010593002245
:1004B200E4FBFAF582F583120594E5BC30E4FB1205
:1004C200057AEF2BFBEE3AFAA3E582641E458370B0
:0C04D200E67C007D1EAF03AE021202C8E3
:0104DE0022FB
:1004DF001204B2D3EF94A8EE940040077510007584
:1004EF00114B221204B2C3EF9476EE9400500775AD
:0D04FF0010007511692275100075115A2248
:100484001205BF759D011204B2AC06AD07E412015A
:10049400B9E4FBFA79807844120117E4FBFA793461
:0E04A400784312000E1201F28E108F1180D8D4
:10000E00EC4D6011E8497017ED33EC3304600DE4EC
:10001E00FCFFFEFD22E933E8330470F802025E12A3
:10002E00022958046009E4CC2481500628500902A4
:10003E000268284003020265C0E0EB4A7044B980B2
:10004E0006D0E0FB020254EF4E701CBD8008EBFFA1
:10005E00EAFEE9FD80EBE98DF0A4FEE5F00200F783
:10006E00E9CDF9EAFEEBFFEF89F0A4FCE5F0CE89CD
:10007E00F0A42EFFE435F0CD89F0A42DFEE435F08A
:10008E008067EF4E7005BD80D780C3EF8BF0A4ACB8
:10009E00F0EE8BF0A42CFCE435F0F8EF8AF0A42CF3
:1000AE00E5F038FCE433CB8DF0A42CFCE5F03BF806
:1000BE00EE8AF0A42CFCE5F038F8E433CF89F0A4F6
:1000CE002CFCE5F038CF3400CE89F0A42FFFE5F0FC
:1000DE003EFEE433C98DF0A42EFEE5F039CD8AF054
:1000EE00A42FFFE5F03EFEE43DFD33D0E0FB5007CC
:1000FE000BBB000F020268EC2CFCEF33FFEE33FE5D
:06010E00ED33FD0202408A
:10011400020268EC5D046005E85904700302025EA3
:10012400120229580460F6EC4860F2EC7004FDFEFB
:10013400FF22C860DB2481C85009C39860025006BE
:100144000202659850CAF582E9294B4A7005AB82D0
:1001540002025475F0007C1A7880C3EF9BEE9AED8E
:1001640099400DC3EF9BFFEE9AFEED99FDE842F036
:10017400DC23ACF0D0E0FFD0E0FED0E0FDAB822089
:10018400E7101BEB60BAEC2CFCEF33FFEE33FEED13
:1001940033FD020240E803F830E705C0F075F000D3
:1001A400EF2FFFEE33FEED33FD40B830E7C280AAF7
:1001B40075F020800E75F010800575F0087D007EC6
:1001C400007F003392D530D5031202FEEC33401089
:1001D400EF33FFEE33FEED33FDEC33FCD5F0ED22CF
:0E01E400E5F0247EA2D513CC92E7CDCEFF220B
:1001F200EDD2E7CD33EC3392D524814006E4FFFE05
:10020200FDFC22FCE4CFCECDCC24E0501174FF8063
:10021200EDC3CC13CCCD13CDCE13CECF13CF047000
:07022200F030D5DE0202FE00
:10022900E9D2E7C933E833F892D5EDD2E7CD33EC1B
:0702390033FC5002B2D52294
:10024000EC30E7100FBF000C0EBE00080DBD00041F
:100250000BEB6014A2D5EB13FCED92E7FD2274FFCB
:10026000FCFDFEFF22E480F8A2D574FF13FC7D8024
:03027000E480EF38
:0300000002030CEC
:0C030C00787FE4F6D8FD75813B020353B6
:10027300BC000BBE0029EF8DF084FFADF022E4CC6F
:10028300F875F008EF2FFFEE33FEEC33FCEE9DEC38
:10029300984005FCEE9DFE0FD5F0E9E4CEFD22ED7E
:1002A300F8F5F0EE8420D21CFEADF075F008EF2FC8
:1002B300FFED33FD4007985006D5F0F222C398FDB9
:0502C3000FD5F0EA2256
:1002C800C2D5EC30E709B2D5E4C39DFDE49CFCEE51
:1002D80030E715B2D5E4C39FFFE49EFE120273C354
:1002E800E49DFDE49CFC800312027330D507C3E44F
:0602F8009FFFE49EFE22C0
:0E02FE00C3E49FFFE49EFEE49DFDE49CFC2211
:10031800020484E493A3F8E493A34003F68001F273
:1003280008DFF48029E493A3F85407240CC8C333E6
:10033800C4540F4420C8834004F456800146F6DFB5
:10034800E4800B010204081020408090044AE47EF7
:10035800019360BCA3FF543F30E509541FFEE493AA
:10036800A360010ECF54C025E060A840B8E493A371
:10037800FAE493A3F8E493A3C8C582C8CAC583CA9C
:10038800F0A3C8C582C8CAC583CADFE9DEE780BE54
:010483000078
:00000001FF
