:08095800020A00000208000081
:010961002273
:10093400758E80758902758C85758A85D2AFD2A92A
:03094400D28C2230
:03000B0002088C5C
:10088C00C0E0C0D075D000C000C006C007050BE5A5
:10089C000B7002050AE509242EFFE43508FEC3E5BA
:1008AC000B9FEE6480F8E50A6480985004D2978020
:1008BC0002C297D3E50B9440E50A6480949F4006EE
:1008CC00750A00750B00D007D006D000D0D0D0E050
:0108DC0032E9
:10090E00E4FDFCC3ED9FEE6480F8EC648098501516
:10091E00E4FBFA0BBB00010AEB64784A70F50DBDDF
:05092E0000010C80DE59
:0109330022A1
:1008DD0020B0157F147E0012090E20B00B75080094
:1008ED0075093CE4F50AF50B20B1157F147E001255
:1008FD00090E20B10B750800750978E4F50AF50BA2
:01090D0022C7
:10094700D2B0D2B1C29575080075095A1209348020
:01095700FEA1
:03000000020800F3
:0C080000787FE4F6D8FD75810B020847F4
:10080C00020947E493A3F8E493A34003F68001F2B2
:10081C0008DFF48029E493A3F85407240CC8C333ED
:10082C00C4540F4420C8834004F456800146F6DFBC
:10083C00E4800B0102040810204080900958E47EEB
:10084C00019360BCA3FF543F30E509541FFEE493B1
:10085C00A360010ECF54C025E060A840B8E493A378
:10086C00FAE493A3F8E493A3C8C582C8CAC583CAA3
:10087C00F0A3C8C582C8CAC583CADFE9DEE780BE5B
:010960000096
:00000001FF
