:10098C000218005A023A000020201A003F0006000C
:10099C005B004F0066006D007D0007007F006F005C
:1009AC0077007C0039005E00790071100800FE00B1
:0D09BC00FD00FB00F700EF00DF00BF007F33
:100A3B00D3EF9400EE6480948040147D787C00EDBD
:0F0A4B001D70011CED4C70F7EF1F70E41E80E171
:010A5A002279
:1009CA00EF242DFFE43EFED3E53B9FE53A9E50041B
:1009DA00D2908002C290C3E53B941AE53A9407404C
:0709EA0005E4F53AF53B229C
:03000B00020A18CE
:100A1800C0E0C0D075D000C006C007053BE53B70FC
:100A280002053AAF19AE181209CAD007D006D0D0BD
:030A3800D0E032D9
:070A84008F80D2A6C2A6225A
:070A8B008F80D2A7C2A72251
:0C0A78007FFF7E00120A8BE4FF020A845C
:0B09F100ED25E0241AF8E6FC08E6FD06
:1009FC00AB07AA06120A78AF03AE02120A8BAF0538
:0C0A0C00AE04120A847F057E00020A3B43
:10093B00AE18AF197C007D641208E6EF25E0241A8F
:10094B00F8E6FC08E6FDAF09AE081209FC120A78BE
:10095B00AE18AF197C007D0A1208E67C007D0A12E6
:10096B0008E6AF0BAE0A1209F1120A78AE18AF19EE
:10097B007C007D0A1208E6AF0DAE0C1209F1020ADB
:01098B0078F3
:03001B00020A9244
:070A9200758DD4758B9932BC
:100A5B00438E80758912758C86758A86758DD475D3
:0D0A6B008B99D2AFD2A9D2ABD28CD28E2201
:10088C00120A5B20B0157F0A7E00120A3B20B00BC7
:10089C000519E5197002051830B0FD20B1157F0A55
:1008AC007E00120A3B20B10BE519151970021518C0
:1008BC0030B1FDD3E51994B4E518940040067518D1
:1008CC00007519B4C3E5199401E518940050067528
:0A08DC00180075190112093B80A9EC
:03000000020800F3
:0C080000787FE4F6D8FD75813B020847C4
:1008E600BC000BBE0029EF8DF084FFADF022E4CCF6
:1008F600F875F008EF2FFFEE33FEEC33FCEE9DECBF
:10090600984005FCEE9DFE0FD5F0E9E4CEFD22ED04
:10091600F8F5F0EE8420D21CFEADF075F008EF2F4E
:10092600FFED33FD4007985006D5F0F222C398FD3F
:050936000FD5F0EA22DC
:10080C0002088CE493A3F8E493A34003F68001F26E
:10081C0008DFF48029E493A3F85407240CC8C333ED
:10082C00C4540F4420C8834004F456800146F6DFBC
:10083C00E4800B010204081020408090098CE47EB7
:10084C00019360BCA3FF543F30E509541FFEE493B1
:10085C00A360010ECF54C025E060A840B8E493A378
:10086C00FAE493A3F8E493A3C8C582C8CAC583CAA3
:10087C00F0A3C8C582C8CAC583CADFE9DEE780BE5B
:0109C900002D
:00000001FF
